:100000000C9480000C94A8000C94A8000C94A800F8
:100010000C94A8000C94A8000C94A8000C94A800C0
:100020000C94A8000C94A8000C94A8000C94800CCC
:100030000C94A8000C94A8000C94A8000C94A800A0
:100040000C94BE070C94A8000C94FE0A0C94410B6F
:100050000C94A8000C94A8000C94A8000C94A80080
:100060000C9435170C94A800084AD73B3BCE016E80
:1000700084BCBFFDC12F3D6C74319ABD56833DDAFF
:100080003D00C77F11BED9E4BB4C3E916BAAAABE0E
:10009000000000803F000000000700020100000394
:1000A0000406000000000000000001020408102007
:1000B00040800102040810200102040810200404FA
:1000C0000404040404040202020202020303030300
:1000D000030300000000250028002B0000000000A2
:1000E000240027002A001112131415160A0B0C0DF8
:1000F0000E0F000102030405A007040C161054168D
:1001000011241FBECFEFD8E0DEBFCDBF15E0A0E0C9
:10011000B1E0E6E9F7E302C005900D92AC3EB1070D
:10012000D9F72FE0ACEEB5E001C01D92AC3FB207AD
:10013000E1F710E0C0E8D0E004C02197FE010E9482
:100140009E1BCC37D107C9F70E94570A0C9462183E
:100150000C9400004F925F926F927F928F929F92C9
:10016000AF92BF92CF92DF92EF92FF92CF93DF9345
:10017000CDB7DEB728970FB6F894DEBF0FBECDBF60
:100180002091100130911101821B930BBC01990F3A
:10019000880B990B0E94B9196B017C0160930806CA
:1001A0007093090680930A0690930B06209104062B
:1001B0003091050640910606509107060E946F187F
:1001C0002B013C016093040670930506809306069C
:1001D000909307062091FC053091FD054091FE05A6
:1001E0005091FF05C701B6010E946E184B015C01DA
:1001F00060930006709301068093020690930306B5
:1002000020910601309107014091080150910901A8
:10021000C701B6010E949D1A69837A838B839C83F0
:1002200020E030E0A901C701B6010E94901A20E049
:1002300030E0A90118161CF4C701B60103C0C701BC
:10024000B60190580E949D1A20E030E040E85FE33C
:100250000E946F189B01AC0169817A818B819C811E
:100260000E949D1A69837A838B839C832091F80571
:100270003091F9054091FA055091FB05C301B20197
:100280000E949D1A9B01AC0169817A818B819C81BE
:100290000E946F182B013C012091F4053091F50567
:1002A0004091F6055091F705C501B4010E949D1AD1
:1002B0009B01AC01C301B2010E946F189B01AC010C
:1002C00060930A0170930B0180930C0190930D01D0
:1002D000C092FC05D092FD05E092FE05F092FF056C
:1002E00080910E0190910F01BC01990F880B990B21
:1002F0002D833E834F8358870E94B9192D813E81FB
:100300004F8158850E946E180E948119693E43E012
:1003100074071CF488EE93E00BC06C3647E074075A
:100320002CF4709327066093260606C08CE697E0AF
:1003300090932706809326066091260670912706E3
:100340008FE29EE00E94E50D80912606909127069F
:1003500090930F0180930E0128960FB6F894DEBF9C
:100360000FBECDBFDF91CF91FF90EF90DF90CF9088
:10037000BF90AF909F908F907F906F905F904F90C5
:100380000895AF92BF92CF92DF92EF92FF920F93B8
:100390001F93CF9380912606909127066CE77BE010
:1003A000681B790B2091140A3091150A4BEF420318
:1003B000C001439F900D1124680F791F20912A06D8
:1003C00030912B06C5E0C29FC001C39F900D112440
:1003D000680F791F072E000C880B990B0E94B91922
:1003E0006B017C018091F005682F70E080E090E067
:1003F0000E94B91926E636E646EA5FE30E949D1A96
:100400009B01AC01C701B6010E946F1820E030E0EB
:1004100042E053E40E946E180E9481191F921F92BD
:10042000CF9320EA2F9320E1A22E24E0B22EC12CFC
:10043000D12C10E4E12E16E0F12E00E010E02AE1CC
:1004400034E040E050E00E943F0C0F900F900F907E
:100450000F90693E83E078073CF06C3687E07807C0
:100460002CF06CE677E002C068EE73E08CE29EE070
:10047000CF911F910F91FF90EF90DF90CF90BF90A1
:10048000AF900C94E50DE8EFF4E0929182919383A4
:10049000828341E0E231F407C1F78091100190912D
:1004A000110120912806309129062817390724F4D4
:1004B0009C01285C310903C09C0128533F4F3093B5
:1004C000290620932806209128063091290630938A
:1004D000130120931201EAEFF4E032912291820F8E
:1004E000931F97FD01969C0135952795C90141E021
:1004F000E231F40791F73093110120931001089530
:100500004F925F926F927F928F929F92AF92BF9223
:10051000CF92DF92EF92FF922EE03EE040E15EE06C
:1005200062E17EE08BE49EE00E941B0F6091120E60
:100530007091130E6B5D7F4F072E000C880B990B8B
:100540000E94B9192B013C0160930A0E70930B0EA7
:1005500080930C0E90930D0E6091100E7091110E01
:10056000625C7F4F072E000C880B990B0E94B91913
:100570004B015C016093060E7093070E8093080E8A
:100580009093090E60910E0E70910F0E665471409B
:10059000072E000C880B990B0E94B9196B017C0186
:1005A0006093020E7093030E8093040E9093050ED9
:1005B00020E030E0A9010E94901A87FD20C0A70129
:1005C0009601C301B2010E940F190E94DB1820E0BE
:1005D00030E044E353EC0E949D1A2BED3FE049E4E8
:1005E00050E40E940F1920E030E048EC52E40E94F1
:1005F0009D1A0E9481197093010E6093000E20E0F5
:1006000030E0A901C701B6010E940A1920E030E0DC
:10061000A90187FF2DC0C301B2010E94901A87FD76
:100620002EC0A7019601C301B2010E940F190E94BA
:10063000DB1820E030E044E353EC0E949D1A2BEDE0
:100640003FE049E450E40E940F1920E030E044E329
:1006500053E40E946E1820E030E048EC52E40E941F
:100660009D1A0E9481197093010E6093000E07C0BD
:10067000C701B6010E94901A87FF39C058C020E018
:1006800030E0A901C301B2010E940A1987FF26C008
:10069000A7019601C301B2010E940F190E94DB1845
:1006A00020E030E044E353EC0E949D1A2BED3FE044
:1006B00049E450E40E940F1920E030E044E353E4A1
:1006C0000E946F1820E030E048EC52E40E949D1A2E
:1006D0000E9481197093010E6093000E20E030E0BB
:1006E000A901C701B6010E94901A87FD29C0A70180
:1006F0009601C501B4010E940F190E94DB1820E089
:1007000030E044E353EC0E949D1A2BED3FE049E4B6
:1007100050E40E940F1920E030E048EC52E40E94BF
:100720009D1A0E9481197093FF0D6093FE0D20E0C9
:1007300030E0A901C701B6010E940A1987FF5EC017
:1007400020E030E0A901C501B4010E94901A87FDA4
:1007500026C0A7019601C501B4010E940F190E948D
:10076000DB1820E030E044E353EC0E949D1A2BEDAF
:100770003FE049E450E40E940F1920E030E044E3F8
:1007800053E40E946E1820E030E048EC52E40E94EE
:100790009D1A0E9481197093FF0D6093FE0D20E059
:1007A00030E0A901C501B4010E940A1987FF26C0E3
:1007B000A7019601C501B4010E940F190E94DB1820
:1007C00020E030E044E353EC0E949D1A2BED3FE023
:1007D00049E450E40E940F1920E030E044E353E480
:1007E0000E946F1820E030E048EC52E40E949D1A0D
:1007F0000E9481197093FF0D6093FE0D8091FE0D94
:100800009091FF0D9093290680932806FF90EF901A
:10081000DF90CF90BF90AF909F908F907F906F9020
:100820005F904F900C94430261E08DE00E94C108FC
:1008300060E08DE00E94FD0840E052EC61E070E075
:1008400088E69EE00E947C0B84E19EE00E94E11419
:100850004EE355E060E084E19EE00E94EF1384E106
:100860009EE00E9460148BE49EE00E94B40E68E05B
:1008700070E08BE49EE00E94530F68E670E082E334
:100880009EE00E94631241E050E064EF71E082E379
:100890009EE00E94451163E070E08FE29EE00E94BE
:1008A000DF0D64E070E08CE29EE00E94DF0D0E94AC
:1008B00080028091FE0D9091FF0D90932906809308
:1008C00028066AE570E08FE29EE00E941A0E6AE553
:1008D00070E08CE29EE00E941A0E6091EE0570E0DE
:1008E00088E39FE00E94E70F8093F1056091050186
:1008F00070E088E39FE00E94E70F8093F00560912D
:10090000040170E088E39FE00E94E70F8093EF0509
:1009100068EC70E080E090E00E942D0865E070E0F7
:1009200089E29EE00E94DF0D66E070E086E29EE0D4
:100930000C94DF0DECEFFDE0929182919383828322
:100940004AE0E631F407C1F780911C0690911D063C
:100950009093170A8093160A2091140A3091150A71
:10096000EEEFFDE092918291820F931F97FD019629
:10097000959587959C014AE0E631F40799F79093A5
:10098000150A8093140A0895E2E1FAE092918291A7
:100990009383828346E0EC32F407C1F780911A0614
:1009A00090911B0690932D0680932C0620912A0689
:1009B00030912B06E4E1FAE092918291820F931F2D
:1009C00097FD0196959587959C0146E0EC32F407DA
:1009D00099F790932B0680932A0608956091240638
:1009E000709125064AE050E088E69EE00E94390AB0
:1009F0006CEF74E088E69EE00E946A09609122062E
:100A0000709123064AE050E088E69EE00E94390A91
:100A100062E075E088E69EE00E946A096091200627
:100A2000709121064AE050E088E69EE00E94390A73
:100A30006CEF74E088E69EE00E946A0960911E06F1
:100A400070911F064AE050E088E69EE00E94390A55
:100A500062E075E088E69EE00E946A0960911C06EB
:100A600070911D064AE050E088E69EE00E94390A37
:100A70006CEF74E088E69EE00E946A0960911A06B5
:100A800070911B064AE050E088E69EE00E94390A19
:100A900068E075E088E69EE00E946A0960911806A9
:100AA000709119064AE050E088E69EE00E94390AFB
:100AB00064E175E088E69EE00E946A09609116068E
:100AC000709117064AE050E088E69EE00E94390ADD
:100AD00064E175E088E69EE00E946A096091140670
:100AE000709115064AE050E088E69EE00E94390ABF
:100AF00064E175E088E69EE00E946A096091120652
:100B0000709113064AE050E088E69EE00E94390AA0
:100B100064E175E088E69EE00E946A096091100633
:100B2000709111064AE050E088E69EE00E94390A82
:100B300064E175E088E69EE00E946A0960910E0615
:100B400070910F064AE050E088E69EE00C94400A5F
:100B50000F931F93CF93DF93CDB7DEB727970FB6D1
:100B6000F894DEBF0FBECDBF84E19EE00E94DF138C
:100B7000882309F4A3C0BE016F5F7F4F87E0FB01AC
:100B800011928A95E9F747E084E19EE00E94E31321
:100B90000981AA81EB816C814D812E818F810111A8
:100BA00035C0A11133C0E11131C061112FC0411115
:100BB0002DC021112BC0811129C080910C0690916C
:100BC0000D060B9734F46AE175E088E69EE00E941A
:100BD000870980910C0690910D068A30910564F08A
:100BE00062E370E00E942A1B892B31F467E275E012
:100BF00088E69EE00E94870980910C0690910D0680
:100C0000019690930D0680930C0678C0002E000C80
:100C1000110B10932506009324060A2E000CBB0B23
:100C2000B0932306A09322060E2E000CFF0BF09328
:100C30002106E0932006062E000C770B70931F060A
:100C400060931E06042E000C550B50931D06409316
:100C50001C06022E000C330B30931B0620931A0641
:100C6000982F917090930E0610920F0681FB992792
:100C700090F9909310061092110682FB992790F933
:100C8000909312061092130683FB992790F9909384
:100C900014061092150684FB992790F99093160676
:100CA0001092170685FB882780F98093180610920A
:100CB000190610920D0610920C0620C020910C0609
:100CC00030910D062F5F3F4F30930D0620930C0699
:100CD0002A3031056CF0C90162E370E00E942A1BE2
:100CE000892B19F467E275E005C02A30310531F42B
:100CF00065E375E088E69EE00E9487090E949A04F9
:100D00000E94C40427960FB6F894DEBF0FBECDBF75
:100D1000DF91CF911F910F910895AF92BF92CF9223
:100D2000DF92EF92FF920F931F930E94A8056AE053
:100D300070E080E090E00E942D0860911E067091A6
:100D40001F06072E000C880B990B1F921F9227E09D
:100D50002F9320ED2F9328EEA22E23E0B22EC12C4C
:100D6000D12C14E6E12EF12C00E010E022E330E07B
:100D700040E050E00E943F0C709303016093020139
:100D80000F900F900F900F9080910C0690910D0690
:100D90000B9754F088EE93E0909303018093020147
:100DA0009093010180930001609102017091030111
:100DB00089E29EE00E94E50D6091020170910301BD
:100DC00086E29EE00E94E50D8091EC059091ED0594
:100DD00001969093ED058093EC05843F21E0920706
:100DE00051F461E08DE00E94FD086091EE0570E035
:100DF0004091F1051EC0883E23E0920751F461E066
:100E00008DE00E94FD086091050170E04091F005C1
:100E100010C08D3D9540DCF061E08DE00E94FD0842
:100E20001092ED051092EC056091040170E0409184
:100E3000EF0588E39FE00E94141062E070E080E01C
:100E400090E00E942D0860E08DE00E94FD088091F6
:100E5000120690911306019729F48091F1058F5F96
:100E60008093F1058091180690911906019729F455
:100E70008091F10581508093F10580911606909143
:100E80001706019711F41092F10580910E069091CA
:100E90000F06019729F48091F0058F5F8093F0058C
:100EA0008091100690911106019729F48091F00528
:100EB00081508093F0054091F105209122063091F8
:100EC00023062253310988E2829FB001839F700D6F
:100ED000112420911C0630911D0654E1529FC0013F
:100EE000539F900D1124860F971F60911A067091E1
:100EF0001B065CEE56039001579F300D1124820FA4
:100F0000931F25E0429F800D911D1124805991402F
:100F10009093F3058093F2050E9480028091F20580
:100F20009091F3050E94AA000E94EE041F910F9178
:100F3000FF90EF90DF90CF90BF90AF900C94C101E5
:100F40008BE49EE00E94760E82E39EE00E941D10DC
:100F50008FE29EE00E94410D8CE29EE00E94410DD6
:100F600089E29EE00E94410D86E29EE00E94410DD2
:100F700040E365E384E19EE00C9492131F920F928C
:100F80000FB60F9211242F933F938F939F93AF939C
:100F9000BF938091600E9091610EA091620EB0910E
:100FA000630E30915F0E23E0230F2D3720F401965E
:100FB000A11DB11D05C026E8230F0296A11DB11D7C
:100FC00020935F0E8093600E9093610EA093620E4B
:100FD000B093630E8091640E9091650EA091660EA1
:100FE000B091670E0196A11DB11D8093640E909380
:100FF000650EA093660EB093670EBF91AF919F915F
:101000008F913F912F910F900FBE0F901F901895C9
:101010003FB7F8948091640E9091650EA091660E92
:10102000B091670E26B5A89B05C02F3F19F0019619
:10103000A11DB11D3FBFBA2FA92F982F8827820F5E
:10104000911DA11DB11DBC01CD0142E0660F771FAE
:10105000881F991F4A95D1F70895CF92DF92EF929A
:10106000FF92CF93DF936B017C010E940808EB0194
:10107000C114D104E104F10479F00E9408086C1B4A
:101080007D0B683E7340A0F381E0C81AD108E108E7
:10109000F108C851DC4FECCFDF91CF91FF90EF907A
:1010A000DF90CF900895019739F0880F991F880F2E
:1010B000991F02970197F1F70895789484B582609B
:1010C00084BD84B5816084BD85B5826085BD85B5EC
:1010D000816085BDEEE6F0E0808181608083E1E89B
:1010E000F0E01082808182608083808181608083D3
:1010F000E0E8F0E0808181608083E1EBF0E08081D6
:1011000084608083E0EBF0E0808181608083EAE7A7
:10111000F0E0808184608083808182608083808130
:10112000816080838081806880831092C1000895EF
:10113000833081F028F4813099F08230A1F0089555
:101140008630A9F08730B9F08430D1F480918000E6
:101150008F7D03C0809180008F77809380000895F9
:1011600084B58F7702C084B58F7D84BD089580914A
:10117000B0008F7703C08091B0008F7D8093B00066
:101180000895CF93DF9390E0FC01E655FF4F249143
:10119000FC01E254FF4F8491882361F190E0880FB5
:1011A000991FFC01E452FF4FC591D491FC01EE520E
:1011B000FF4FA591B491611109C09FB7F894888140
:1011C000209582238883EC912E230BC0623061F43A
:1011D0009FB7F8943881822F809583238883EC9180
:1011E0002E2B2C939FBF06C08FB7F894E8812E2B2F
:1011F00028838FBFDF91CF9108951F93CF93DF9303
:10120000282F30E0F901EA56FF4F8491F901E655A5
:10121000FF4FD491F901E254FF4FC491CC23C9F0A0
:10122000162F81110E949808EC2FF0E0EE0FFF1F9F
:10123000EE52FF4FA591B4918FB7F894111105C0EC
:101240009C91ED2FE095E92302C0EC91ED2BEC93FE
:101250008FBFDF91CF911F910895CF92DF92EF92D0
:10126000FF920F931F93CF93DF936C01EB017B01F0
:10127000E40EF51E00E010E0CE15DF0561F0699187
:10128000D601ED91FC910190F081E02DC601099508
:10129000080F191FF1CFC801DF91CF911F910F9156
:1012A000FF90EF90DF90CF9008956115710579F070
:1012B000FB0101900020E9F73197AF01461B570B66
:1012C000DC01ED91FC910280F381E02D099480E036
:1012D00090E008950C945509DC01ED91FC9101908A
:1012E000F081E02D09940F931F93CF93DF93EC01CE
:1012F0006DE00E946C098C016AE0CE010E946C09CD
:10130000800F911FDF91CF911F910F9108950F933F
:101310001F93CF93DF93EC010E9455098C01CE01FE
:101320000E947309800F911FDF91CF911F910F9140
:1013300008958F929F92AF92BF92CF92DF92EF92D9
:10134000FF920F931F93CF93DF93CDB7DEB7A19793
:101350000FB6F894DEBF0FBECDBF6C01142FE52F82
:10136000CB01022F19A2223008F40AE07E0121E20B
:10137000E20EF11C802E912CA12CB12C612F7E2F1E
:10138000A50194010E943E1B029F1019112481E0C7
:10139000E81AF1081A3014F4105D01C0195CF70165
:1013A0001083122FE32FCA01232B242B252B31F777
:1013B000B701C6010E945509A1960FB6F894DEBF89
:1013C0000FBECDBFDF91CF911F910F91FF90EF9096
:1013D000DF90CF90BF90AF909F908F900895CF9265
:1013E000DF92EF92FF920F931F93CF93DF93EC0165
:1013F0006A017B012115310579F4E881F9810190B9
:10140000F081E02D642FDF91CF911F910F91FF901C
:10141000EF90DF90CF9009942A303105E9F477FFFF
:101420001AC06DE20E946C098C0144275527BA014D
:101430004C195D096E097F092AE0CE010E949909C5
:10144000800F911FDF91CF911F910F91FF90EF902F
:10145000DF90CF9008952AE0B701A601CE01DF9179
:10146000CF911F910F91FF90EF90DF90CF900C9450
:1014700099099A01AB01770F660B770B0C94EF0972
:101480000F931F93CF93DF93EC019A01AB01770F7A
:10149000660B770B0E94EF098C01CE010E94730945
:1014A000800F911FDF91CF911F910F9108950E949E
:1014B0005D080E941404C8E3DBE00E948D062097BB
:1014C000E1F30E94380BF9CFFC0124853585F90141
:1014D000E05CFF4F80819181329620813181821BB7
:1014E000930B8F7399270895DC011C96ED91FC9165
:1014F0001D97DF01A05CBF4F2D913C911197129673
:101500008D919C9111972817390739F08D919C91F5
:10151000E80FF91F808190E008958FEF9FEF089505
:10152000FC01A485B585FD01E05CFF4F2081318180
:101530003296808191812817390779F080819181D5
:10154000A80FB91F8C91208131812F5F3F4F2F73DE
:1015500033273183208390E008958FEF9FEF089524
:10156000FC0181A1882329F0A489B5898C9186FF8B
:10157000FBCF11A208950F931F93CF93DF93FC012C
:10158000A685B7858D01005C1F4FE8018881998190
:1015900001968F739927AD014E5B5F4FEA01288159
:1015A000398182179307D1F3E80128813981A20F8D
:1015B000B31F6C93A685B785A05CBF4F11969C9313
:1015C0008E93A689B7892C9181E090E0078C02C0A8
:1015D000880F991F0A94E2F7822B8C9381E081A3F4
:1015E0000488F589E02D80818064808381E090E02B
:1015F000DF91CF911F910F91089508951F920F923F
:101600000FB60F9211242F934F935F938F939F9355
:10161000EF93FF938091C00082FD1CC02091C60013
:1016200080910E0F90910F0F01968F739927409123
:10163000100F5091110F8417950771F0E0910E0F64
:10164000F0910F0FE253F14F208390930F0F80938F
:101650000E0F02C08091C600FF91EF919F918F9174
:101660005F914F912F910F900FBE0F901F90189583
:1016700088E69EE00E94640A892B11F00C94FD0A12
:1016800008951F920F920FB60F9211242F933F933C
:101690008F939F93EF93FF932091CA0E3091CB0EBF
:1016A0008091CC0E9091CD0E2817390731F480919E
:1016B000C1008F7D8093C10014C0E091CC0EF091E9
:1016C000CD0EE657F14F20818091CC0E9091CD0E3A
:1016D00001968F7399279093CD0E8093CC0E209313
:1016E000C600FF91EF919F918F913F912F910F90A5
:1016F0000FBE0F901F901895CF92DF92EF92FF923E
:101700000F931F93CF93DF93EC016A017B01411587
:10171000514E6105710509F1EC89FD8981E090E088
:1017200008A002C0880F991F0A94E2F7808360E046
:1017300079E08DE390E0A70196010E943E1B8901AC
:101740009A010150110921093109369527951795FC
:101750000795980101151041A8F0EC89FD891082C8
:1017600060E874E88EE190E0A70196010E943E1BBC
:10177000DA01C9010197A109B109B695A795979515
:1017800087959C01E889F9893083EA89FB89208360
:1017900019A2EE89FF89408181E090E09C010C8CC8
:1017A00002C0220F331F0A94E2F7242B2083EE8914
:1017B000FF8940819C010D8C02C0220F331F0A94C7
:1017C000E2F7242B2083EE89FF8940819C010E8C57
:1017D00002C0220F331F0A94E2F7242B2083EE89E4
:1017E000FF8920810F8C02C0880F991F0A94E2F7AD
:1017F000809582238083DF91CF911F910F91FF907D
:10180000EF90DF90CF900895E8E6FEE01382128219
:1018100088EE93E0A0E0B0E084839583A683B7834D
:1018200088E495E0918380838EEC9EE095878487A1
:101830008AE89EE09787868785EC90E0918B808B85
:1018400084EC90E0938B828B80EC90E0958B848B82
:1018500081EC90E0978B868B82EC90E0918F808F6B
:1018600086EC90E0938F828F84E0848F83E0858F75
:1018700087E0868F85E0878F81E080A308954F926F
:101880005F926F927F92AF92BF92CF92DF92EF9270
:10189000FF920F931F93CF93DF93CDB7DEB729014C
:1018A0003A019B01AC012419350946095709898978
:1018B0009A89AB89BC89BC01CD016A197B098C0965
:1018C0009D090E940E1BA80197012419350946099C
:1018D00057090E94601BCA01B9016A0D7B1D8C1D4E
:1018E0009D1DDF91CF911F910F91FF90EF90DF90A1
:1018F000CF90BF90AF907F906F905F904F90089582
:101900001F920F920FB60F9211242F933F934F9374
:101910005F936F937F938F939F93AF93BF93EF9357
:10192000FF938091130F87FF05C0109285001092DE
:1019300084001BC02091130F022E000C330B8091EA
:10194000120F90E02817390784F48091130F082EA6
:10195000000C990BFC01EE0FFF1F8E0F9F1FFC0167
:10196000EC5EF04F808186FD15C08091130F8F5F74
:101970008093130F2091130F022E000C330B8091D4
:10198000120F90E028173907C4F48091130F8C30A0
:1019900064F113C08091130F082E000C990BFC0109
:1019A000EE0FFF1F8E0F9F1FFC01EC5EF04F80813A
:1019B00060E08F730E94FD08D8CF809184009091E1
:1019C0008500049680349C4918F480E49CE905C0A5
:1019D0008091840090918500049690938900809373
:1019E00088008FEF8093130F3BC0209184003091CB
:1019F00085008091130F082E000C990BFC01EE0F4F
:101A0000FF1F8E0F9F1FFC01EC5EF04F81819281C2
:101A1000820F931F90938900809388008091130F09
:101A2000082E000C990BFC01EE0FFF1F8E0F9F1F5D
:101A3000FC01EC5EF04F808186FF12C08091130F95
:101A4000082E000C990BFC01EE0FFF1F8E0F9F1F3D
:101A5000FC01EC5EF04F808161E08F730E94FD0815
:101A6000FF91EF91BF91AF919F918F917F916F9176
:101A70005F914F913F912F910F900FBE0F901F904C
:101A80001895FC019091120F9C30A0F481E0890F11
:101A90008093120F9083892F90E0FC01EE0FFF1FBF
:101AA0008E0F9F1FFC01EC5EF04F88EB9BE0928352
:101AB000818308958FEF80830895DF92EF92FF92E4
:101AC0000F931F93CF93DF93EC01D62E7A018901F8
:101AD00088818C3008F06AC061E08D2D0E94C108B9
:101AE0008881E82FF0E09F01220F331FE20FF31FE0
:101AF000EC5EF04F9D2D9F732081207CD22ED92A41
:101B0000D08260E272E0AB014E195F0957FF02C05C
:101B10004D5F5F4F5595479555954795498340E6ED
:101B200059E09A01201B310B37FF02C02D5F3F4F58
:101B300035952795359527952A836CE00E941E1BC5
:101B40009CE0899FB001112440E050E09A01260FEB
:101B5000371FF901EE0FFF1F2E0F3F1FF901EC5E3B
:101B6000F04F908196FD16C04F5F5F4F4C3051058E
:101B700069F781110FC01092800082E0809381008C
:101B80001092850010928400B19A80916F0082605B
:101B900080936F00E881F0E0CF01880F991FE80F74
:101BA000F91FEC5EF04F8081806480838881DF9133
:101BB000CF911F910F91FF90EF90DF90089520E655
:101BC00039E040E252E00C945D0DFC0190819C30C4
:101BD00080F5818128E830E0281B310987FD3395A5
:101BE000220F331F220F331F621773077CF082818D
:101BF00028E532E0281B310987FD3395220F331F7A
:101C0000220F331F621773070CF49B014FB7F89430
:101C1000892F90E0FC01EE0FFF1F8E0F9F1FFC012C
:101C2000EC5EF04F22503109220F331F32832183A3
:101C30004FBF0895AF92BF92CF92DF92EF92FF9283
:101C40000F931F93CF93DF93EC01603282E078070C
:101C50000CF03FC077FD06C0653B71052CF064EBCE
:101C600070E002C060E070E0898128E830E059014E
:101C7000A81AB10887FDB394AA0CBB1CAA0CBB1C04
:101C80000B2C000CCC08DD08072E000C880B990BE0
:101C90002A8108E512E0021B110927FD1395000FA8
:101CA000111F000F111F012E000C220B330B3F934D
:101CB0002F931F930F9314EBE12EF12C00E010E013
:101CC00020E030E0A9010E943F0C0F900F900F9090
:101CD0000F90CE01DF91CF911F910F91FF90EF9068
:101CE000DF90CF90BF90AF900C94E50DFC0181E0A8
:101CF0008083118283EC9BEAA6E7BBE38283938314
:101D0000A483B58388ED9BE6A6E7BBE38683978330
:101D1000A087B18782EF94EEA4E6BBE38287938726
:101D2000A487B58708951F93CF93DF931F92CDB7F4
:101D3000DEB7162F63E570E08CE39FE049830E94D5
:101D40003C16612F8CE39FE00E94D6154981642FD9
:101D50008CE39FE00E94D6158CE39FE00F90DF910B
:101D6000CF911F910C945116CF93DF93EC018CE32C
:101D70009FE00E94151640E06DE2CE010E94930E96
:101D800040E16DE2CE010E94930E48E06DE2CE018B
:101D9000DF91CF910C94930EAF92BF92CF92DF92CE
:101DA000EF92FF920F931F93CF93DF938C01C62F77
:101DB0007A01690163E570E08CE39FE00E943C16C4
:101DC0006C2F8CE39FE00E94D6158CE39FE00E946D
:101DD000511663E570E08CE39FE00E943C16A7017A
:101DE00063E570E08CE39FE00E942F16E6015E0140
:101DF000AC18BD088CE39FE00E947A15892B31F066
:101E00008CE39FE00E9482158993F1CFAE14BF044A
:101E100021F0F801108281E081838CE39FE0DF9163
:101E2000CF911F910F91FF90EF90DF90CF90BF90D7
:101E3000AF900C945116CF92DF92EF92FF920F93D6
:101E40001F93CF93DF93EC016B017A0189019C0111
:101E5000225F3F4F46E050E062E30E94CC0E8F8548
:101E600090E0982F88272E85822BF601918380831E
:101E7000898990E0982F88272889822BF701918300
:101E800080838B8990E0982F88272A89822BF801FC
:101E900091838083DF91CF911F910F91FF90EF90FD
:101EA000DF90CF900895FF920F931F93CF93DF930E
:101EB0001F92CDB7DEB78C01645071096D3071058A
:101EC00028F4FB01EC5AFA4FF08001C0F12C9E017E
:101ED0002F5F3F4F41E050E061E3C8010E94CC0E0C
:101EE00049814C7E4F2961E3C8010E94930E0F90F7
:101EF000DF91CF911F910F91FF90089520913A0F9C
:101F000030913B0F2F5F3F4F30933B0F20933A0FA1
:101F1000FC0180819181009719F0821793071CF4CE
:101F200069EB75E009C08091FA049091FB04861773
:101F3000970744F46FE875E088E69EE00E94870901
:101F400080E0089581E00895FF920F931F93CF934F
:101F5000DF931F92CDB7DEB78B016F5F7F4F498351
:101F60000E947E0FF82E4981882321F0642FC8013A
:101F70000E94BB1B8F2D0F90DF91CF911F910F916E
:101F8000FF9008950C94A40F8091FA049091FB04A3
:101F90008617970744F46FE875E088E69EE00E9494
:101FA000870980E0089581E00895CF93DF93EB01E6
:101FB0006F5F7F4F0E94C40F882329F0CE01DF910D
:101FC000CF910C94B31B80E0DF91CF9108950C94D6
:101FD000D50FEF92FF920F931F93CF93DF931F9232
:101FE000CDB7DEB77C018B016F5F7F4F49830E94C5
:101FF0007E0F4981882369F0B801C70149830E9497
:10200000D50F4981841771F0B801C7010E94C20F32
:1020100081E081700F90DF91CF911F910F91FF9020
:10202000EF90089580E0F5CF0C94E90F84E690E0FE
:102030009093390F8093380F0895FC01158614860C
:1020400017861686118A108A80E090E0A6E6B1E431
:1020500080839183A283B38384839583A683B7838C
:1020600080879187A287B38708951F93CF93DF93CB
:102070001F92CDB7DEB7162FFC0162898CE39FE07B
:1020800049830E943216612F8CE39FE00E94D6158F
:102090004981642F8CE39FE00E94D6158CE39FE07A
:1020A0000F90DF91CF911F910C945116462F65E14F
:1020B0000C943510CF92DF92EF92FF920F931F9303
:1020C000CF93DF931F92CDB7DEB76C01F62E890157
:1020D000FC0162898CE39FE049830E9432166F2DD8
:1020E0008CE39FE00E94D6158CE39FE00E9451167E
:1020F000F60162898CE39FE00E9432164981F60165
:1021000062898CE39FE00E942C16D12C8CE39FE027
:102110000E947A15892B59F07801ED0CF11C8CE3A3
:102120009FE00E948215F7018083D394EFCF8CE368
:102130009FE00F90DF91CF911F910F91FF90EF9053
:10214000DF90CF900C9451160F931F93CF938C0177
:10215000C62F9C012D5E3F4F41E066E10E945A1060
:1021600088E0C89FB0011124F8014389477E462BBF
:1021700066E1C801CF911F910F910C9435101F9308
:10218000CF93DF93EC01162F9C012D5E3F4F41E072
:1021900066E10E945A104B89487F412B66E1CE01CF
:1021A000DF91CF911F910C9435100F931F93CF9314
:1021B0008C01C62F9C012D5E3F4F41E067E10E94DC
:1021C0005A1084E0C89FB0011124F80143894B7F65
:1021D000462B67E1C801CF911F910F910C943510E8
:1021E0001F93CF93DF93EC01162F9C012D5E3F4F81
:1021F00041E067E10E945A104B894E7F412B67E115
:10220000CE01DF91CF911F910C943510CF92DF92C8
:10221000EF92FF920F931F93CF93DF93EC016B012B
:102220007A0189019C012D5E3F4F46E06DE10E94DD
:102230005A108B8990E0982F88272C89822BF601E1
:10224000918380838D8990E0982F88272E89822B17
:10225000F701918380838F8990E0982F8827288DBC
:10226000822BF80191838083DF91CF911F910F9191
:10227000FF90EF90DF90CF9008959B012C5F3F4F30
:10228000AB014E5F5F4F0C9406112F923F924F921D
:102290005F926F927F928F929F92AF92BF92CF92F6
:1022A000DF92EF92FF920F931F93CF93DF93CDB7FF
:1022B000DEB72E970FB6F894DEBF0FBECDBF1C0160
:1022C00078876F83C12CD12C7601460157012601F6
:1022D000370100E010E0CA01A0E0B0E08B879C87E6
:1022E000AD87BE87AF81B8850A171B0709F43FC0C9
:1022F0006B857C858D859E850E942D08BE016F5F54
:102300007F4FC1010E943D1169817A81072E000C27
:10231000880B990B0E94B9199B01AC01C301B20152
:102320000E946F182B013C016B817C81072E000CF1
:10233000880B990B0E94B9199B01AC01C501B4012E
:102340000E946F184B015C016D817E81072E000C8D
:10235000880B990B0E94B9199B01AC01C701B6010A
:102360000E946F186B017C010F5F1F4FBBCFB8013C
:1023700080E090E00E94B7196F83788789879A87F9
:10238000C301B20190582F81388549855A850E9432
:102390000F1920E030E040E05FE30E946F180E94D8
:1023A0008119F10175876487C501B40190582F81A7
:1023B000388549855A850E940F1920E030E040E0B9
:1023C0005FE30E946F180E948119D1011F967C93D0
:1023D0006E931E97C701B60190582F8138854985A5
:1023E0005A850E940F1920E030E040E05FE30E9430
:1023F0006F180E948119F101718B608B2E960FB6B8
:10240000F894DEBF0FBECDBFDF91CF911F910F912A
:10241000FF90EF90DF90CF90BF90AF909F908F9004
:102420007F906F905F904F903F902F9008951F93F3
:10243000CF93DF93EC01162F9C012D5E3F4F41E0BF
:102440006EE30E945A104B89487F412B6EE3CE0108
:10245000DF91CF911F910C9435108F929F92AF9284
:10246000CF92EF920F93CF93DF931F92CDB7DEB74A
:102470004C01FC01628B642F29830E945610298134
:10248000622FC4010E94A410602FC4010E94BF10DB
:102490006E2DC4010E9417126C2DC4010E94D5102C
:1024A0006A2DC4010E94F01066E470E080E090E0C4
:1024B0000F90DF91CF910F91EF90CF90AF909F90C1
:1024C0008F900C942D08AF92CF92EF920F93AA2485
:1024D000A394CC24C394EE24E39400E023E040E0F2
:1024E0000E942D120F91EF90CF90AF9008958EBD66
:1024F0000DB407FEFDCF8EB508950F931F93CF93B4
:10250000DF931F92CDB7DEB78C0181E069830E9413
:102510005D1580E00E94661584E00E946B1569815C
:10252000F80181810E94FD0885E090E00F90DF9125
:10253000CF911F910F910C945308FC0180819181E0
:1025400089130C94FD08089560E00C947D1261E0FD
:102550000C947D12EF92FF921F93CF93DF931F9203
:10256000CDB7DEB77C0169830E94A4126981862FF2
:102570008F710E9477128FEF0E947712182FC70178
:102580000E94A712812F0F90DF91CF911F91FF9092
:10259000EF900895CF92DF92EF92FF920F931F93E7
:1025A000CF93DF9300D01F92CDB7DEB77C01142FFD
:1025B0002A835B8369830E94A4126981862F8F71AD
:1025C00080620E947712082FC12E5B81D52E2A814E
:1025D000120F1C1531F0F60181916F010E947712E4
:1025E000F8CFC7010E94A712802F0F900F900F9075
:1025F000DF91CF911F910F91FF90EF90DF90CF90DF
:102600000895EF92FF921F93CF93DF9300D0CDB741
:10261000DEB77C014A8369830E94A4126981862FF8
:102620008F7180620E947712182F4A81842F0E9436
:102630007712C7010E94A712812F0F900F90DF9190
:10264000CF911F91FF90EF900895BF92CF92DF92AC
:10265000EF92FF920F931F93CF93DF9300D0CDB7EC
:10266000DEB77C01FC01C580B42EC41608F4BC2C76
:10267000F7018681811102C0CB1801C0C12CC701AE
:1026800069837A830E94A41281E60E947712D82E71
:102690006981062F7A81172FB60EB01639F08FEFA9
:1026A0000E947712F80181938F01F7CFCC2029F097
:1026B0008FEF0E947712CA94F9CFC7010E94A71228
:1026C0008D2D0F900F90DF91CF911F910F91FF9063
:1026D000EF90DF90CF90BF900895EF92FF921F93FD
:1026E000CF93DF931F92CDB7DEB77C0169830E9441
:1026F000A4126981862F0E947712182FC7010E94A9
:10270000A712812F0F90DF91CF911F91FF90EF9033
:10271000089562EE0C946D1361EE0C946D136FEFDF
:102720000C946D13FC0160834183148280E28583E5
:10273000168285E0848717820895462F6E3708F049
:102740004DE765E00C940113CF93DF93EC0160E05B
:102750000E94AA1281FD12C060E0CE010E94AA125E
:10276000482F426060E0CE010E94011365E070E0F6
:1027700080E090E0DF91CF910C942D08DF91CF9114
:1027800008950F931F93CF93DF938C01EB0167E1C3
:102790000E94AA1280FD0BC0209759F0C8010E9428
:1027A0008F1390E0959587958770888302C080E0AD
:1027B00001C081E0DF91CF911F910F91089560E0FA
:1027C00070E00C94C113CF93DF93EC010E942513AA
:1027D00040E767E0CE01DF91CF910C940113EF92B7
:1027E000FF920F931F93CF93DF938C01C62F7A0133
:1027F000611108C0FC01448550E0B70107960E94B2
:10280000651805C0673008F037C0613041F4EC2F1F
:10281000F0E0E451FF4F6491F801248506C0E62FF3
:10282000F0E0E451FF4F649121E0A701C8010E944C
:10283000CA12D0E0FE01EA51FF4F6491F8014581D0
:10284000C8010E94011362E0C8010E94AA12FE01A1
:10285000EE50FF4FE49141E050E001C0440FEA9593
:10286000EAF7482B62E0C801DF91CF911F910F91E9
:10287000FF90EF900C940113DF91CF911F910F9176
:10288000FF90EF9008950F931F93CF938C01C62F65
:1028900062E00E94AA12EC2FF0E0EE50FF4FE491AC
:1028A00021E030E001C0220FEA95EAF72095422F9F
:1028B000482362E0C801CF911F910F910C9401133E
:1028C000CF93DF93EC010E94A41360E0CE010E943D
:1028D000AA12482F416060E0CE010E94011340E738
:1028E00067E0CE010E94011361E0CE010E949D12BB
:1028F0008F81882349F02C85AE01495F5F4F6AE0E4
:10290000CE010E94CA1204C060E0CE010E944314AE
:102910006DE1CE010E94AA1281FF05C0CE01DF91B8
:10292000CF910C948C13DF91CF910895CF93DF93C7
:10293000EC010E94A41280E50E94771283E70E94B6
:102940007712CE01DF91CF910C94A712EF92FF92F4
:102950000F931F93CF938C017B0166E00E94AA1214
:10296000C82FC77D82E0E816F10431F4C0628BE91C
:1029700090E0A0E0B0E00DC0EA94EF2829F085E5F2
:1029800090E0A0E0B0E005C0C86081E490E0A0E085
:10299000B0E0F80185879687A787B08B4C2F66E05B
:1029A000C8010E94011366E0C8010E94AA1291E0CA
:1029B0008C1390E0892FCF911F910F91FF90EF9092
:1029C0000895CF93DF93EC0188819981891719F0DD
:1029D00061E00E94C10889819881981719F061E02F
:1029E0000E94C1080E94471560E0CE010E949D121E
:1029F00061E0CE010E947D1265E070E080E090E031
:102A00000E942D084CE060E0CE010E9401134FE5CA
:102A100064E0CE010E94011362E070E0CE010E94EA
:102A2000A614882311F081E08C8360E070E0CE0171
:102A30000E94A614CE010E94961440E06DE1CE01E2
:102A40000E94011340E06CE1CE010E94011340E7B7
:102A500067E0CE010E9401136CE4CE010E949D1339
:102A6000CE010E948913CE010E948C13CE010E94D8
:102A7000A41360E0CE010E94AA12482F4E7F60E0AE
:102A8000CE010E94011380E0DF91CF91089561E0B3
:102A90008AE00E94FD0861E08AE00E94C1088CB5CE
:102AA00080618CBD8CB580648CBD61E08DE00E943E
:102AB000C10861E08BE00C94C108811103C08CB5A2
:102AC000806202C08CB58F7D8CBD08959CB5937FCC
:102AD000892B8CBD08959CB5282F23709C7F922B49
:102AE0009CBD2DB582FB992790F9822F8E7F892B73
:102AF0008DBD089580916C0F90E020916D0F821B29
:102B00009109089590916D0F80916C0F981750F472
:102B1000E92FF0E0E259F04F208130E09F5F909381
:102B20006D0F02C02FEF3FEFC9010895E0916D0FC7
:102B300080916C0FE81730F4F0E0E259F04F80819B
:102B400090E008958FEF9FEF08950895CF92DF9260
:102B5000EF92FF920F931F93CF93DF937C01262F69
:102B6000972F8A018091480F882391F0C62FD72F85
:102B70006E01C40ED51ECC15DD0571F06991D7012B
:102B8000ED91FC910190F081E02DC7010995F3CF03
:102B9000642F822F0E940C17C801DF91CF911F91E3
:102BA0000F91FF90EF90DF90CF900895CF93DF9338
:102BB0001F92CDB7DEB769832091480F2223D1F051
:102BC0002091490F203240F021E030E0FC013383B6
:102BD000228380E090E015C080914A0FE82FF0E05A
:102BE000E55BF04F998190838F5F80934A0F8093CC
:102BF000490F05C061E0CE0101960E940C1781E0EB
:102C000090E00F90DF91CF910895FC011382128222
:102C100088EE93E0A0E0B0E084839583A683B78339
:102C20008FED95E091838083089510926D0F10923F
:102C30006C0F10924A0F1092490F0C945816862F61
:102C4000413208F040E26EE67FE00E947616109274
:102C50006D0F80936C0F089521E00C941F1621E0F6
:102C60000C941F1681E08093480F60936B0F1092B5
:102C70004A0F1092490F08950C9432160F93062FA5
:102C800021E04091490F6BE47FE080916B0F0E943F
:102C9000BA1610924A0F1092490F1092480F0F91D6
:102CA000089561E00C943E168CE39FE00C940516A9
:102CB0001092FB0F81E08093F90F1092F80F61E002
:102CC00082E10E94FD0861E083E10E94FD08E9EBDA
:102CD000F0E080818E7F808380818D7F808388E497
:102CE0008093B80085E48093BC000895413208F0D9
:102CF0003FC09091FB0F9111FCCF91E09093FB0F9F
:102D00002093F90F2FEF20938E0F1092D30F240FE3
:102D10002093D20F9093FA0F9091FA0F880F892B7E
:102D20008093FA0F8091F80F813041F41092F80FE0
:102D30008091FA0F8093BB0085EC01C085EE8093F3
:102D4000BC008091FB0F8130E1F38091D30F841799
:102D500010F44091D30F24ED3FE0FB01D9018A2FFD
:102D6000821B841718F48D918193F9CF842F0895D5
:102D700080E008950F93413208F046C09091FB0F18
:102D80009111FCCF32E03093FB0F0093F90F3FEF2E
:102D900030938E0F1092D30F4093D20FFB0164ED4E
:102DA0007FE0DB013A2F361B341718F431913D9345
:102DB000F9CF1092FA0F3091FA0F880F832B80937E
:102DC000FA0F8091F80F813041F41092F80F809142
:102DD000FA0F8093BB0085EC01C085EE8093BC00A8
:102DE000222321F08091FB0F8230D1F380918E0F4E
:102DF0008F3F79F080918E0F803241F080918E0F5D
:102E0000803331F094E005C091E003C092E001C04E
:102E100093E0892F0F910895613298F42091FB0F70
:102E2000243089F46093B00FFC0122EB3FE0D9011C
:102E30008A2F821B861718F481918D93F9CF80E039
:102E4000089581E0089582E0089585ED8093BC00A7
:102E50008091BC0084FDFCCF1092FB0F089585EC9F
:102E60008093BC001092FB0F08951F920F920FB633
:102E70000F9211242F933F934F935F936F937F9300
:102E80008F939F93AF93BF93EF93FF938091B9007C
:102E9000887F803609F49CC068F5883209F45BC0ED
:102EA00090F4803109F454C038F4882309F4F5C053
:102EB000883009F44DC0F5C0883109F44CC0803227
:102EC00009F45DC0EEC0803409F468C048F4803372
:102ED00009F455C0883309F0E4C080938E0FA8C070
:102EE000803509F44FC0883509F45DC0883409F095
:102EF000D8C0D5C0883909F4C6C0A8F4883709F409
:102F000067C038F4883609F463C0803709F460C0BC
:102F1000C8C0883809F4B7C0803909F45FC0803868
:102F200009F0BFC05BC0803B09F485C038F4803A2B
:102F300009F466C0883A09F47EC0B3C0803C09F445
:102F4000A6C0883C09F4A3C0883B09F489C0A9C085
:102F50008091FA0F10C09091D30F8091D20F9817E3
:102F600070F5E091D30F81E08E0F8093D30FF0E0E6
:102F7000EC52F04F80818093BB0085EC85C080933C
:102F80008E0F8DC0E091D30F81E08E0F8093D30F11
:102F90008091BB00F0E0EC52F04F80839091D30F12
:102FA0008091D20F6DC0E091D30F81E08E0F80939E
:102FB000D30F8091BB00F0E0EC52F04F8083809102
:102FC000F90F81116CC081E08093F80F84EA60C032
:102FD00083E08093FB0F10928F0FCFCF80918F0FE4
:102FE000803208F050C0E0918F0F81E08E0F809307
:102FF0008F0F8091BB00F0E0E057F04F8083BDCF92
:1030000080918F0F803230F4E0918F0FF0E0E05725
:10301000F04F10820E94251760918F0F70E0E091B1
:10302000F40FF091F50F80E99FE0099510928F0F52
:103030000E942F1736C084E08093FB0F1092B10FCF
:103040001092B00FE091F60FF091F70F0995809173
:10305000B00F811105C081E08093B00F1092B20FC4
:10306000E091B10F81E08E0F8093B10FF0E0EE544C
:10307000F04F80818093BB009091B10F8091B00F91
:10308000981708F47ACF85E88093BC000AC085ECD5
:103090008093BC001092FB0F04C010928E0F0E9410
:1030A0002517FF91EF91BF91AF919F918F917F91E4
:1030B0006F915F914F913F912F910F900FBE0F90A5
:1030C0001F901895F8940C94C91BFB01DC0102C0F9
:1030D00001900D9241505040D8F708955058BB27A9
:1030E000AA270E9486180C94561A0E94481A38F093
:1030F0000E944F1A20F039F49F3F19F426F40C94E3
:103100001E1A0EF4E095E7FB0C94181AE92F0E94A2
:10311000671A58F3BA17620773078407950720F0F8
:1031200079F4A6F50C94891A0EF4E0950B2EBA2FBB
:10313000A02D0B01B90190010C01CA01A0011124BD
:10314000FF27591B99F0593F50F4503E68F11A1669
:10315000F040A22F232F342F4427585FF3CF4695FA
:1031600037952795A795F0405395C9F77EF41F161C
:10317000BA0B620B730B840BBAF09150A1F0FF0FE6
:10318000BB1F661F771F881FC2F70EC0BA0F621FD2
:10319000731F841F48F4879577956795B795F795C2
:1031A0009E3F08F0B0CF9395880F08F09927EE0F57
:1031B000979587950895DF93DD27B92FBF7740E86E
:1031C0005FE31616170648075B0718F4D92F0E940D
:1031D000951A9F938F937F936F930E940A1BE8E643
:1031E000F0E00E94211A0E94561A2F913F914F91B0
:1031F0005F910E94B01ADD2351F09058A2EA2AEDA7
:103200003FE049EC5FE3D0785D270E948618DF91AC
:103210000C94561A0E94F41908F481E008950E9453
:1032200023190C94561A0E944F1A58F00E94481AFB
:1032300040F029F45F3F29F00C94181A51110C94B6
:103240008A1A0C941E1A0E94671A68F39923B1F324
:10325000552391F3951B550BBB27AA2762177307BC
:10326000840738F09F5F5F4F220F331F441FAA1F50
:10327000A9F335D00E2E3AF0E0E832D0915050400C
:10328000E695001CCAF72BD0FE2F29D0660F771FBA
:10329000881FBB1F261737074807AB07B0E809F0A0
:1032A000BB0B802DBF01FF2793585F4F3AF09E3F25
:1032B000510578F00C94181A0C948A1A5F3FE4F3C5
:1032C000983ED4F3869577956795B795F7959F5F68
:1032D000C9F7880F911D9695879597F90895E1E0B4
:1032E000660F771F881FBB1F621773078407BA0713
:1032F00020F0621B730B840BBA0BEE1F88F7E0956E
:1033000008950E9488196894B1110C948A1A08953E
:103310000E946F1A88F09F5798F0B92F9927B751DC
:10332000B0F0E1F0660F771F881F991F1AF0BA9569
:10333000C9F714C0B13091F00E94891AB1E0089524
:103340000C94891A672F782F8827B85F39F0B93F16
:10335000CCF3869577956795B395D9F73EF490951C
:103360008095709561957F4F8F4F9F4F0895E8949A
:1033700009C097FB3EF490958095709561957F4FBD
:103380008F4F9F4F9923A9F0F92F96E9BB2793956B
:10339000F695879577956795B795F111F8CFFAF47B
:1033A000BB0F11F460FF1BC06F5F7F4F8F4F9F4FAC
:1033B00016C0882311F096E911C0772321F09EE80A
:1033C000872F762F05C0662371F096E8862F70E070
:1033D00060E02AF09A95660F771F881FDAF7880F4A
:1033E0009695879597F90895990F0008550FAA0BA0
:1033F000E0E8FEEF16161706E807F907C0F0121608
:103400001306E407F50798F0621B730B840B950B0A
:1034100039F40A2661F0232B242B252B21F408955F
:103420000A2609F4A140A6958FEF811D811D0895FC
:1034300097F99F6780E870E060E008959FEF80EC67
:103440000895DF93CF931F930F93FF92EF92DF9234
:103450007B018C01689406C0DA2EEF010E94B01A3D
:10346000FE01E894A5912591359145915591A6F3DA
:10347000EF010E948618FE019701A801DA9469F70E
:10348000DF90EF90FF900F911F91CF91DF91089502
:1034900000240A9416161706180609060895002433
:1034A0000A9412161306140605060895092E0394AD
:1034B000000C11F4882352F0BB0F40F4BF2B11F421
:1034C00060FF04C06F5F7F4F8F4F9F4F089557FD80
:1034D0009058440F551F59F05F3F71F04795880F82
:1034E00097FB991F61F09F3F79F087950895121619
:1034F00013061406551FF2CF4695F1DF08C01616C5
:1035000017061806991FF1CF869571056105089475
:103510000895E894BB2766277727CB0197F908958C
:103520000E94F41908F48FEF08959B01AC0160E04C
:1035300070E080E89FE30C940F190E94B01A0C947D
:10354000561A0E94481A38F00E944F1A20F095230C
:1035500011F00C94181A0C941E1A11240C948A1A47
:103560000E94671A70F3959FC1F3950F50E0551FA5
:10357000629FF001729FBB27F00DB11D639FAA27C8
:10358000F00DB11DAA1F649F6627B00DA11D661F17
:10359000829F2227B00DA11D621F739FB00DA11D38
:1035A000621F839FA00D611D221F749F3327A00DF2
:1035B000611D231F849F600D211D822F762F6A2F8E
:1035C00011249F5750409AF0F1F088234AF0EE0FF3
:1035D000FF1FBB1F661F771F881F91505040A9F720
:1035E0009E3F510580F00C94181A0C948A1A5F3F84
:1035F000E4F3983ED4F3869577956795B795F7955C
:10360000E7959F5FC1F7FE2B880F911D96958795D3
:1036100097F908959B01AC010C949D1ADB018F93DF
:103620009F930E947F1BBF91AF91A29F800D911D20
:10363000A39F900DB29F900D11240895991B79E0DE
:1036400004C0991F961708F0961B881F7A95C9F732
:103650008095089597FB072E16F4009407D077FD08
:1036600009D00E948A1B07FC05D03EF490958195F5
:103670009F4F0895709561957F4F0895A1E21A2E8E
:10368000AA1BBB1BFD010DC0AA1FBB1FEE1FFF1F06
:10369000A217B307E407F50720F0A21BB30BE40B56
:1036A000F50B661F771F881F991F1A9469F760959D
:1036B0007095809590959B01AC01BD01CF01089557
:1036C000052E97FB1EF400940E94771B57FD07D030
:1036D0000E943E1B07FC03D04EF40C94771B5095C0
:1036E0004095309521953F4F4F4F5F4F08959095EE
:1036F0008095709561957F4F8F4F9F4F08950E94E1
:10370000A41BA59F900DB49F900DA49F800D911DAB
:1037100011240895AA1BBB1B51E107C0AA1FBB1FA0
:10372000A617B70710F0A61BB70B881F991F5A954D
:10373000A9F780959095BC01CD010895EE0FFF1F6C
:103740000590F491E02D0994A29FB001B39FC001B0
:10375000A39F700D811D1124911DB29F700D811DBD
:103760001124911D0895F999FECF92BD81BDF89A5B
:10377000992780B50895262FF999FECF1FBA92BDDB
:1037800081BD20BD0FB6F894FA9AF99A0FBE019642
:063790000895F894FFCF3C
:10379600DC05DC0504026F12033B00C0B744BE051E
:1037A600BE05BE050000000000000000000000008D
:1037B6000000000000000000000000000000000003
:1037C60000000000000000000000000000000000F3
:1037D60000000000000000000000000000000000E3
:1037E60000000000000000000000000000000000D3
:103B860000000000000000000000000220202C20A1
:103B9600200020207C202000202020202020202DF6
:103BA6002D2D2020202020202000526164696F20C6
:103BB6006D697373656400526164696F206973206F
:103BC60044656164004E6F20726164696F00303035
:103BD6003030310000000000BB0A2D09640A900A4B
:103BE600740AB00A01000000020000000000000094
:103BF6000343616E6E6F74206368616E6765206350
:103C060065696C696E672C2062656C6F77206973D5
:103C160073756564206164647265737365730041CE
:103C26007474656D707420746F2077726974652082
:103C36006F757473696465206F6620454550524FF1
:103C46004D206D656D6F72790045786365656465B5
:103C560064206D6178696D756D206E756D62657233
:103C6600206F66207772697465730000000000D6C5
:0C3C760015A6157A1582159615A51500E7
:00000001FF
